:100000000C9462000C948A000C948A000C948A0070
:100010000C948A000C948A000C948A000C948A0038
:100020000C948A000C948A000C948A000C948A0028
:100030000C948A000C948A000C948A000C948A0018
:100040000C9487020C948A000C9455020C942F0295
:100050000C948A000C948A000C948A000C948A00F8
:100060000C948A000C948A000000000023002600F3
:10007000290000000008000201000003040700003E
:1000800000000000000000000000250028002B00F8
:1000900000000000240027002A00040404040404D3
:1000A0000404020202020202030303030303010227
:1000B00004081020408001020408102001020408F6
:1000C0001020CA0311241FBECFEFD8E0DEBFCDBF82
:1000D00011E0A0E0B1E0E8E0F8E002C005900D9288
:1000E000A231B107D9F721E0A2E1B1E001C01D9230
:1000F000AC3BB207E1F710E0C2E6D0E004C02197C4
:10010000FE010E94F703C136D107C9F70E94D10250
:100110000C9402040C94000081E480937C00809194
:100120007A00806480937A0080917A0086FDFCCF0B
:10013000809178002091790090E0922B089590E0D2
:10014000FC01E255FF4F2491FC01E656FF4F8491DC
:10015000882399F090E0880F991FFC01E057FF4F2A
:10016000A591B491FC01EA57FF4F859194918FB707
:10017000F894EC91E22BEC938FBF0895CF92DF922D
:10018000EF92FF920F931F93CF93DF936C017A014D
:100190008B01C0E0D0E0CE15DF0589F0D8016D916C
:1001A0008D01D601ED91FC910190F081E02DC60109
:1001B0000995892B11F47E0102C02196ECCFC7016D
:1001C000DF91CF911F910F91FF90EF90DF90CF9033
:1001D0000895089580E090E00895FC01538D448DCA
:1001E000252F30E0842F90E0821B930B541710F0E2
:1001F000CF96089501970895FC01918D828D9817EF
:1002000061F0828DDF01A80FB11D5D968C91928DFA
:100210009F5F9F73928F90E008958FEF9FEF0895F7
:10022000FC01918D828D981731F0828DE80FF11DC0
:10023000858D90E008958FEF9FEF0895FC01918DDB
:10024000228D892F90E0805C9F4F821B91098F73D4
:10025000992708958FE191E00E941E0121E0892BEA
:1002600009F420E0822F0895FC01848DDF01A80F9E
:10027000B11DA35ABF4F2C91848D90E001968F73CE
:100280009927848FA689B7892C93A089B1898C91ED
:1002900080648C93938D848D981306C00288F389B3
:1002A000E02D80818F7D80830895EF92FF920F93E0
:1002B0001F93CF93DF93EC0181E0888F9B8D8C8D12
:1002C000981305C0E889F989808185FD24C0F62E40
:1002D0000B8D10E00F5F1F4F0F731127E02E8C8DD9
:1002E000E8120CC00FB607FCFACFE889F9898081C3
:1002F00085FFF5CFCE010E943401F1CF8B8DFE0139
:10030000E80FF11DE35AFF4FF0820B8FEA89FB895A
:100310008081806207C0EE89FF896083E889F9895E
:1003200080818064808381E090E0DF91CF911F9194
:100330000F91FF90EF900895CF93DF93EC01888D9C
:100340008823C9F0EA89FB89808185FD05C0A889D9
:10035000B9898C9186FD0FC00FB607FCF5CF80815F
:1003600085FFF2CFA889B9898C9185FFEDCFCE01A9
:100370000E943401E7CFDF91CF91089580E090E0B3
:10038000892B29F00E942A0181110C940000089504
:10039000833081F028F4813099F08230A1F0089503
:1003A0008730A9F08830B9F08430D1F48091800092
:1003B0008F7D03C0809180008F77809380000895A7
:1003C00084B58F7702C084B58F7D84BD08958091F8
:1003D000B0008F7703C08091B0008F7D8093B00014
:1003E00008951F93CF93DF93282F30E0F901EE5843
:1003F000FF4F8491F901E255FF4FD491F901E65680
:10040000FF4FC491CC23C9F0162F81110E94C8015F
:10041000EC2FF0E0EE0FFF1FEA57FF4FA591B491CC
:100420008FB7F894111105C09C91ED2FE095E92349
:1004300002C0EC91ED2BEC938FBFDF91CF911F9118
:1004400008952FB7F8946091170170911801809169
:10045000190190911A012FBF08950E94FD031F9268
:100460000F920FB60F9211242F933F934F935F93E8
:100470006F937F938F939F93AF93BF93EF93FF936C
:100480008FE191E00E943401FF91EF91BF91AF9114
:100490009F918F917F916F915F914F913F912F919C
:1004A0000F900FBE0F901F9018951F920F920FB6CE
:1004B0000F9211242F938F939F93EF93FF93E091CB
:1004C0002F01F09130018081E0913501F0913601EA
:1004D00082FD12C09081809138018F5F8F732091CF
:1004E0003901821751F0E0913801F0E0E15EFE4FF2
:1004F000958F8093380101C08081FF91EF919F918A
:100500008F912F910F900FBE0F901F9018951F92F3
:100510000F920FB60F9211242F933F938F939F93B7
:10052000AF93BF938091170190911801A091190189
:10053000B0911A013091160123E0230F2D3720F4DA
:100540000196A11DB11D05C026E8230F0296A11D2D
:10055000B11D209316018093170190931801A09369
:100560001901B0931A018091120190911301A09189
:100570001401B09115010196A11DB11D80931201C6
:1005800090931301A0931401B0931501BF91AF9103
:100590009F918F913F912F910F900FBE0F901F90C1
:1005A0001895789484B5826084BD84B5816084BDDB
:1005B00085B5826085BD85B5816085BD80916E0001
:1005C000816080936E001092810080918100826032
:1005D000809381008091810081608093810080916F
:1005E00080008160809380008091B100846080935E
:1005F000B1008091B00081608093B00080917A005A
:10060000846080937A0080917A00826080937A007F
:1006100080917A00816080937A0080917A0080686E
:1006200080937A001092C100E0912F01F091300187
:1006300082E08083E0912B01F0912C011082E09107
:100640002D01F0912E018FEC808310923701E09103
:100650003301F091340186E08083E0913101F09123
:100660003201808180618083E0913101F09132011B
:10067000808188608083E0913101F0913201808136
:1006800080688083E0913101F091320180818F7D1B
:10069000808388E00E949F008DE00E949F00CFE74A
:1006A000D0E00BEB10E037EAE32E30E0F32E60E011
:1006B00088E00E94F10161E08DE00E94F1010E945A
:1006C0008C00883C9105DCF30E948C0085369105F6
:1006D000DCF761E088E00E94F1010E9421024B01F9
:1006E0005C010E948C00849724F00E9421024B013F
:1006F0005C010E942102DC01CB0188199909AA0939
:10070000BB098D329140A105B10588F60E942102F6
:1007100040901B0150901C0160901D0170901E01C3
:10072000DC01CB0184199509A609B7098B3F910516
:10073000A105B105B0F2FE018491F801C490F70162
:10074000D490DD20A9F081110E94C8018D2D90E088
:10075000880F991F88599F4FFC01A591B4918C91E6
:10076000C82291E080E009F490E0692F782F02C060
:1007700060E070E0F1E06F278DE00E94F1010E94DF
:10078000210260931B0170931C0180931D019093C3
:100790001E01A7CFEFE1F1E01382128288EE93E011
:1007A000A0E0B0E084839583A683B78384E091E0E2
:1007B0009183808385EC90E09587848784EC90E03A
:1007C0009787868780EC90E0918B808B81EC90E01E
:1007D000938B828B82EC90E0958B848B86EC90E0FF
:1007E000978B868B118E128E138E148E0895EE0FBA
:1007F000FF1F0590F491E02D099481E090E0F894BA
:080800000C940204F894FFCFF0
:10080800000000005501BE00ED009C011E01FC0027
:020818001001CD
:00000001FF
